:020000041000EA
:1000000000B5324B212058609868022188439860DF
:10001000D860186158612E4B002199600221596106
:100020000121F02299502B49196001219960352056
:1000300000F044F80222904214D00621196600F024
:1000400034F8196E01211966002018661A6600F04E
:100050002CF8196E196E196E052000F02FF8012189
:100060000842F9D1002199601B49196000215960AB
:100070001A491B48016001219960EB211966A021F2
:10008000196600F012F800219960164914480160C1
:100090000121996001BC002800D000471248134993
:1000A000086003C880F30888084703B5996A0420EC
:1000B0000142FBD001200142F8D103BD02B5186610
:1000C0001866FFF7F2FF186E186E02BD00000240BE
:1000D000000000180000070000035F00212200005C
:1000E000F4000018222000A00001001008ED00E03C
:1000F00000000000000000000000000074B24E7A12
:1001000000200420F7010010C3010010C5010010F9
:10011000C1010010C1010010C1010010C101001097
:10012000C1010010C1010010C1010010C701001081
:10013000C1010010C1010010C9010010CB01001065
:10014000CD010010CD010010CD010010CD01001037
:10015000CD010010CD010010CD010010CD01001027
:10016000CD010010CD010010CD010010CD01001017
:10017000CD010010CD010010CD010010CD01001007
:10018000CD010010CD010010CD010010CD010010F7
:10019000CD010010CD010010CD010010CD010010E7
:1001A000CD010010CD010010CD010010CD010010D7
:1001B000CD010010CD010010CD010010CD010010C7
:1001C00000BE00BE00BE00BE00BE00BEEFF3058054
:1001D000103800BEF2EB88717CF40610A4F406100F
:1001E0003402001090A31AE700201F49086006C8D7
:1001F00081F3088810471D48006800282FD10DA4FE
:100200000ECC002902D000F012F8F9E71849194A7B
:10021000002000E001C19142FCD1174988471749ED
:1002200088471749884700BEFDE701C901C29A42C5
:10023000FBD37047A4F40610C0000020300C00204F
:100240001400071000000420000004201400071010
:10025000001004200010042000000000704709482E
:1002600003F090FB0047000008ED00E0000000D024
:10027000500C0020A8D70020A12500101506001062
:10028000612500105756000006005250ABB3605372
:1002900044D6021006005250861C030254D60210A7
:1002A000060052505422A29D68D6021005005250FA
:1002B000DE65F46814000710F8B5C0460648074923
:1002C000091A8B10C90FC91810B5491003D0044B77
:1002D000002B00D0984710BD300C0020300C0020BF
:1002E00000000000054B10B5002B03D00449054861
:1002F00000E000BFFFF7E2FF10BDC04600000000B5
:10030000BCC4002070C8021070B50500140092B281
:10031000012309F0A7FB002804D128000AF03EF8C9
:10032000200070BD0048FCE700F0FFFF70B508003A
:100330000A4B1D68002D0FD06C89944200D914001F
:100340006968220003F09AFFA1B2280006F0CCF8F9
:10035000024B1860200070BD014CFBE7B4D40020B4
:100360000097FFFF30B5804CA544804868442AF0D0
:1003700076FDFA20C00068442AF048FFFFA81C3030
:1003800016F08EFDAB23DB006B44180019F0C4FDA2
:10039000774B78490A220092AB22D2006A44FFA828
:1003A0001C3016F0A6FD002867D1734805A90DF092
:1003B0009BFD002006F0A8FF704B1860002863D05A
:1003C00000236F4A05A906F0D9FC002863D16D49C6
:1003D0006A4B186806F096FC002300220021FA20E0
:1003E000C00068442AF018FF00285FD10021FA23DA
:1003F000DB006B4418002AF03CFD6349FFAA1C3265
:10040000FA23DB006B4418002AF035FD02AA5F4B8B
:1004100031CB31C202A9FA23DB006B4418002AF069
:1004200033FDFA23DB006B441900504868442BF07D
:1004300013F800283FD156494C4868442AF02AFD59
:1004400000283DD1534B544A4C4909680020009084
:10045000464868442AF012FD444868442AF07AFD70
:10046000002832D04D4B9842F6D04D4B9842F3D0F5
:1004700041424C4804F092F803E041424A4804F0FB
:100480008DF84A4B9D4430BD494804F057F849481F
:1004900001F0A3FA8DE7484804F050F8374B18688C
:1004A00006F0D6FF434801F098FA82E741424348FC
:1004B00004F074F8E5E74142414804F06FF8E0E7E2
:1004C0004142404804F06AF8DBE73F4804F036F860
:1004D0003E4915222548684426F044FE00282CDCBD
:1004E00041423B4804F05AF8CBE73A4804F026F87A
:1004F0001E4B6B44180026F09BFD1C4B6B441800F0
:100500002AF010FEFA20C00068442AF0C9FEFFA8B5
:100510001C3016F0D5FCAB20C000684419F0C9FCB3
:10052000AFE741422C4804F039F8E1E706AB00227E
:100530001A542A48190004F031F8294A06A90B4830
:10054000684427F03DF8154B9842F6D0144B98427A
:10055000F3D0244B9842C8D00028E2DBE6D12248F1
:1005600003F0ECFFC4E7C04604F7FFFF34080000C7
:1005700070C80210559F0110A4C80210801B0020F3
:10058000901F0000ED050010377001109C51031002
:1005900048C902102D030010090300100097FFFF47
:1005A0008097FFFF7CC902107CC80210FC08000085
:1005B000B4C8021088130000CCC80210F8C802109A
:1005C00024C9021054C90210A4C90210B8C90210EB
:1005D000D0C90210F4C9021018CA021058CA021079
:1005E000FF0300008087FFFF38CA021010B5080023
:1005F000111E07D0064B1868002806D005F0ACFF86
:10060000002010BD06F024FFFAE71A60F8E7C046A4
:10061000B4D4002010B503F0CDFF0DF07BFF00280F
:1006200018D10DF081FE05E00D4803F087FF0D485D
:1006300001F0D3F90C490D480D4B0E4A0DF02DFF7A
:100640000028F1D10C4803F079FFFFF78BFE0DF085
:1006500091FEFAE7094803F071FF0120404210BD06
:100660007CCA021088130000A4CA0210B0CA02108B
:100670001027000004004000BCCA021068CA021023
:1006800010B58300084A944663441A6840246240C7
:10069000803414408022520113431C60C000034B7D
:1006A0009C466044416010BD04C0014000400140D0
:1006B00080000B4B9C46604400290DD00823002A83
:1006C0000CD004221343026853400C221A408023AA
:1006D0005B0103431A6070470023F0E70022F1E753
:1006E00004C00140002909D08000094B9C466044A9
:1006F00080239B01034302221A6070478000044B51
:100700009C466044C0239B01034302221A60F4E725
:1007100004C0014070B5D0231B061B68094C9D0026
:100720002C59204207D1074D9B0004435C510D20FA
:1007300000F0E8F970BD044B044A0548CC2101F0F3
:1007400013FFC046A0D40020D0CA0210CC51031021
:10075000FCCA021010B50400D0231B061A680B4B0C
:100760009200D35818420BD00D2000F0D3FAD023BA
:100770001B061B6805499B005A58A2435A5010BDDE
:10078000034B044A0448D62101F0EEFEA0D4002019
:1007900040CB0210A8510310FCCA021007230340EB
:1007A0009B00C00899403C308000014BC15070470D
:1007B00000400140F8B507000C0016001D00FFF7CF
:1007C000EDFFFB089B00ED180720384080008440B7
:1007D000002E04D080239B012B431C60F8BDC02356
:1007E0009B012B431C60F9E710B5D0231B061B6847
:1007F000002B03D0024BFFF7DDFF10BD014BFAE7E2
:10080000304101400041014010B501238340D02216
:100810001206936293610521FFF732FF10BD0000BD
:10082000034B1B6802201840431E9841C0B270471A
:1008300000C00640EFF3108072B6034B1B68002B1C
:10084000FBD0BFF35F8F70472C0100D0BFF35F8FE9
:10085000024B00221A6080F3108870472C0100D0F0
:10086000F8B506000C001500FFF7E4FFE308F718E1
:10087000F15C07222240012393400B4205D1DBB2F9
:100880000B433B70FFF7E2FFF8BD2100280001F0A9
:100890004BFFF0B583B00600019114001F00FFF775
:1008A000C9FF00E00134BC420CD8E308F518F35C42
:1008B0000721214001228A401A42F3D1D2B21A43C1
:1008C0002A7001E001246442FFF7C0FF002C02DB24
:1008D000200003B0F0BD019B002BF9D0089801F077
:1008E00023FF000070B505000C00FFF7A3FFE3082D
:1008F000EE18EA5C0721214001238B40134204D00B
:100900009A433270FFF7A2FF70BD034B034A0448BD
:10091000332101F029FEC0466CCB021000520310B7
:100920008CCB0210002307E0054A9A189200BFF30F
:100930005F8F0021116001331F2BF5D97047C0462E
:1009400040000034054A1078431CDBB21370172BAB
:1009500002D9130010221A707047C0467805002093
:10096000074B9B68103080001950BFF35F8FBFF3B7
:100970005F8F044B0021196082F310887047C046D6
:1009800000ED00E0240100D01F23181A704700007A
:1009900010B50388DA0A1C2A05D15B055B15023302
:1009A0005B00C01810BD034B034A0448B12101F09D
:1009B000DBFDC046D4CB021064520310ECCB021016
:1009C00010B5091A0B1F0A4A88180A4A904208D81B
:1009D000C90706D45B105B055B0D0748184380B25E
:1009E00010BD064B064A0748A32101F0BDFDC046D5
:1009F000FC070000FE0F000000E0FFFF30CC0210FB
:100A000058520310ECCB021010B5091A04394A08E9
:100A1000090B08D14905490D064B0B430380064BD2
:100A20001343438010BD054B054A0648AB2101F036
:100A30009BFDC04600F0FFFF00F8FFFF60CC0210F6
:100A40002C520310ECCB021001238340034A1068A0
:100A50001840431E9841C0B27047C04600E100E014
:100A6000002904D0034B1860034B18607047034BF8
:100A70001860FBE780E200E000E100E080E100E0D8
:100A800010B5012383401800FFF7EAFF10BD0000F6
:100A900001238340014A13607047C04600E200E032
:100AA000024B9B6810308000C058704700ED00E09A
:100AB00070B504000D00EFF3108672B60C4B1B6886
:100AC000002BFBD0BFF35F8F2000FFF7E9FF094B3E
:100AD000984201D0A84205D1320029002000FFF73A
:100AE0003FFF70BD044B054A0548862101F03CFDDF
:100AF000240100D0CD01001070CC02108C520310E4
:100B0000ECCB0210F0B5DE4657464E464546E0B502
:100B100089B0814601911500EFF3108A72B66D4BD2
:100B20001B68002BFBD0BFF35F8F6B4B00269E57DB
:100B3000002E41DB7400A419A40068482418062282
:100B4000A256654B1A70664B9A684B4610339B0051
:100B5000D35898461F00181A2F2839D9614B984549
:100B600030D105AF604B3B80604973009B469819BC
:100B700080005A4B984640440230FFF721FF7880AE
:100B80005B4BBB80FF23BB71FD71019B079333005F
:100B90005B449B00434407CF07C301231C43A0468B
:100BA000524641464846FFF7DBFE09B0F0BCBB4663
:100BB000B246A946A046F0BD4E4B4F4A4F48D721FA
:100BC00001F0D2FC4E4B4C4A4C48DE2101F0CCFCEB
:100BD00001380C2102F02AFF002912D101239F4382
:100BE000BB463B000027DA79AA4211D906215956A3
:100BF00000290CDB4A005218920038491F008B185C
:100C0000F1E7404B3C4A3D48EA2101F0ADFC1F00B2
:100C1000002F2ED005AB3C4A1A80813A5A80062319
:100C2000FB560293002B17DA384805AB9B46988099
:100C3000029A9A71DD71019A0792381D2100FFF71F
:100C4000BFFEB880BE71254B7200921992009B18AE
:100C50005A4613CA13C3A3E7381DFFF799FE0100D4
:100C60007000801980001D4BC0180430FFF7A8FEEB
:100C7000DBE705AF1C4B3B801C49730002939B19BB
:100C80009B00164A90461A0042440392901CFFF7BC
:100C900097FE7880039A101D5946FFF791FEB880A1
:100CA0001B4B5A464146521A524153431B0DBB71CE
:100CB000FD71019A0792029B9B199B00434407CF49
:100CC00007C3114B5A461380813B538001231C43B9
:100CD000A04665E7240100D09BD700207C050020BA
:100CE00000ED00E0CD01001000A1FFFFAC050020E9
:100CF00001BDFFFFA8CC021074520310ECCB021010
:100D0000D0CC0210F8CC02100148000001BD000058
:100D1000AAAA0000F0B5CE46474680B583B00600CB
:100D20000D00EFF3108872B64F4B1B68002BFBD001
:100D3000BFF35F8F4D4B9A6834001034A300D7582F
:100D40004B4B9F4207D0AF4200D18BE00197494BFC
:100D5000FB1A2F2B09D9424639003000FFF700FE5D
:100D600003B0C0BCB946B046F0BD3000FFF76CFE22
:100D7000814600213000FFF783FEBFF35F8FEFF362
:100D80000581002901D08C4211D10123019C9C4393
:100D90000020A368AB4212D00622A256002A0DDB27
:100DA00053009B189B00334A2000D418F1E7324BC4
:100DB000324A36213248FF3101F0D6FB2000AB42E7
:100DC00049D106256557002D2BDB2A4B6A005219A5
:100DD00092009B189A68A260DA79E2719B795BB203
:100DE000A371002B0FDA2748A080224B6A0052190A
:100DF00092009B18244A1178997115704946300069
:100E0000FFF73EFEA7E7680040198000194BC018A5
:100E10000430FFF7BDFD0100231D1800FFF7D0FDD2
:100E2000E2E7002912D100280ED0FF238371174B6F
:100E3000838015490B78A3710E4A154BA41A64419F
:100E400063431B0D0B70D9E7094FF2E71149201DD1
:100E5000FFF7DAFDD2E7104B084A6A210848FF3154
:100E600001F082FB024F76E7240100D000ED00E0A4
:100E7000CD0100107C0500206CCD021044520310FF
:100E8000ECCB021001BD00009BD7002001BDFFFF8D
:100E9000AAAA0000B6050020A0CD021010B50323B9
:100EA00004009C43064A9446644422681840C000EB
:100EB000FC3383409A43130081400B43236010BDF1
:100EC00000E400E070B5012202432E4BD31A2F2B11
:100ED00028D8EFF30583002B2BD0EFF3108C72B6DC
:100EE000294909680029FBD0BFF35F8F254C2749AA
:100EF00005002D1B6D416943090D4CB224498968D9
:100F00009B00C95891421BD00021032932D81D4BA8
:100F10004A00521892009B189B795BB2A3421FD0E3
:100F20000131F2E71B4B1C4AC7211C48490001F064
:100F30001BFB1B4B184A92211848FF3101F014FB90
:100F4000134A92681749D150174B1A7882711C7056
:100F5000BFF35F8F0C4B00221A608CF3108870BDBA
:100F6000084B4A005518AD005D19FF26AE710F4AB7
:100F7000AA80E9E70E4B084AD1210848490001F050
:100F8000F3FAC0467C050020240100D0AAAA000084
:100F900000ED00E0A8CD021010520310ECCB0210BF
:100FA000D0CD0210CD0100109BD7002001BDFFFF66
:100FB0008C4B03100022044B02E0044902C30132AF
:100FC000072AFAD97047C04600E400E0808080809C
:100FD00010B5FFF7D9FC0100024B1800FFF782FCA7
:100FE00010BDC046A4D7002010B582B00100074C48
:100FF000074B0093052300222000FFF74AFC00283E
:1010000001DB1F23181A02B010BDC046A4D7002070
:10101000DCCD021070B504000E001500FFF792FC45
:101020000100200000F006F8A680E580BFF35F8F86
:1010300070BD0000024B9C4661448900016070470E
:101040004000003410B50400FFF77CFC01002000D4
:10105000FFF7F0FFFF232371BFF35F8F10BD10B5C3
:101060000400FFF76FFC01002000FFF7E3FFFF2300
:10107000237100236371BFF35F8F10BD084B5B6A60
:10108000994209D8064A926A824207D2994201D00F
:10109000012002E0002000E0002070470120FCE772
:1010A0000040054010B500290AD003681B7B8B4225
:1010B00006D38068054B9C4661440901401810BD69
:1010C000034B044A04483C2101F04EFAFFFFFF0F96
:1010D0008CCE0210F0530310B0CE0210F8B504000D
:1010E0001700FFF7DFFF0668456839002000FFF7AB
:1010F000D9FF026843680120AB4201D802D000202A
:10110000C0B2F8BDB242FBD8F9E7000010B5002B21
:1011100002DB0260436010BD024B034A03483F21DB
:1011200001F022FAECCE0210BC53031008CF0210DB
:1011300010B582B004000498059912184B41002B99
:1011400009DB6846FFF7E2FF009A019B22606360BB
:10115000200002B010BD01225242014BF1E7C0460F
:10116000FFFFFF7F10B5002908D0037B8B4205D31A
:1011700000684B005B18033BC01810BD024B034ACC
:101180000348682101F0F0F954CF0210985303107E
:1011900070CF021010B5437B8B4201D1012010BDEE
:1011A000FFF7E0FF8378002B01D10020F7E7012053
:1011B000F5E770B50400857B002D01D1280070BDD6
:1011C0002900FFF7CFFF4378A373002B00D1E3730F
:1011D0000023837043700370F0E70000F8B5060049
:1011E0000C001500FFF7BEFF0700002C0DD0002DEE
:1011F00011D0AC4215D029003000FFF7B3FF847046
:101200003B78002B13D13D70F8BD0A4B0A4A0B48BE
:101210006F2101F0A9F90A4B074A0848702101F033
:10122000A3F9084B044A0548712101F09DF9437068
:101230003D70E9E7C0CF02107453031070CF021065
:10124000CCCF0210D8CF021070B506000D001400EC
:10125000002914D0002A14D04368806898470028D9
:1012600006D0220029003000FFF7B8FF280007E071
:101270002A0021003000FFF7B1FF200000E010003D
:1012800070BD0800FCE7000070B504000D1E0CD016
:10129000FFF768FF0023837043700370617B2A00AF
:1012A0002000FFF7D1FF607370BD034B034A044871
:1012B000A52101F059F9C046F0CF02108853031060
:1012C00070CF021070B504000D1E0FD0FFF762FF43
:1012D00000280BD1E17B00290ED1A37B002B03D189
:1012E000E37B002B0DD1A573E57370BD084B094A54
:1012F0000948F62101F038F92000FFF733FF457067
:10130000EBE7064B034A0448FB2101F02DF9C046E8
:10131000F4CF02106453031070CF021018D00210E3
:1013200010B5002907D003681B7B8B4203D3C0682C
:101330000139401810BD034B034A0448412101F014
:1013400013F9C0468CCE021050530310B0CE0210D9
:1013500070B505000C00080000F0CAFC0949200027
:1013600000F00AFCFFF7EEFA074B9C466044800051
:1013700068602C75D0231B061B786B75034BA4008B
:10138000E55070BD9D14001040000034D4C400200E
:101390000A4B1A68EFF3108172B61368002BFCD069
:1013A000BFF35F8F054B1B68BFF35F8F00221A608E
:1013B00081F3108840BF002000217047C8D600206C
:1013C00010B582B0040000F099FB02000B006846E3
:1013D000FFF79CFE009A019B22606360200002B030
:1013E00010BD70B584B0040016001D0002A8FFF700
:1013F000E7FF029A039B009601952000FFF798FEF5
:10140000200004B070BD0000F0B583B00700019269
:101410001D000AAB1C780BAB1E78002C0BD00068AB
:101420002100FFF7B7FE002809D0194B194A1A48C6
:10143000672101F099F80068FFF7BBFE0400002C5B
:1014400002D1200003B0F0BD21003800FFF72AFED2
:10145000019B03604560089B8360099BC3603868FB
:101460002100FFF711FFA042EBD1387D019A2B003C
:1014700000F0CAFB051E01D0002E04D00C9B002BEF
:10148000DFD01D70DDE73868210000F077FDF5E75B
:101490002CD00210A4530310B0CE0210F0B5DE46DB
:1014A00057464E464546E0B58FB00B900021794B2C
:1014B0008200D458894683E029002000FFF7F2FD1E
:1014C000804602684368921BBB41002B09DD4346FE
:1014D0001A685B680B9800F097FB0023984600267B
:1014E0008AE0002B01D1002AF1D10021584600F0FA
:1014F0003BFD0700A84215D143461A685B68089275
:10150000099343469E68DB689846002E10D0290058
:101510002000FFF705FF037899461B021F43276150
:10152000002069E05C4B5D4A5D488E2101F01CF8AB
:101530005C4B5A4A5A48922101F016F82369002B55
:1015400000D177E0BB4219D10698079900234242A7
:101550008B4100920193089A099B0CA8FFF7E8FDC4
:101560000C9A0D9B00210491013103910295414693
:10157000019100962000FFF747FF16E04A4B474ACB
:101580004748A12100F0F0FF069A079B002B01D1EC
:10159000002A52D120682900FFF794FE290020007C
:1015A000FFF7BEFE037801330370002323616268F6
:1015B000BFF35F8F13608AF310880120002861D089
:1015C0000CA8FFF7FDFE0C9E0D9F00220023089241
:1015D00009936268EFF3108A72B61368002BFCD08F
:1015E000BFF35F8F23689B465D7B002D00D063E7D0
:1015F00000239846002600206368BFF35F8F002217
:101600001A608AF31088002ED8D04B461F022F4351
:1016100041463800B047069007916268EFF3108AA0
:1016200072B61368002BFCD0BFF35F8F079B002BB3
:1016300000DA83E7079B002BA6DD2369002BA9D0E6
:10164000BB4219D10CA8FFF7BBFE0C9A0D9B069864
:101650000799009001910CA8FFF76AFD0C9A0D9B69
:1016600000210491013103910295414601910096B8
:101670002000FFF7C9FE98E70B4B084A0848A42151
:1016800000F072FF0FB0F0BCBB46B246A946A046C0
:10169000F0BDC046D4C4002054D00210D45303106F
:1016A000B0CE02100C5003106CD0021010B50C4BD1
:1016B0005B68002B04D00B480A21FFF7BBFC10BD70
:1016C000074C094A20682300102100F0B8FB0320D2
:1016D00000F008FA03212000FFF73AFEEBE7C046CE
:1016E000C4050020C8D60020DD10001010B5064B40
:1016F0005B68002B01D0044810BD044B044A054828
:101700005E2100F031FFC046C4050020A8D00210C1
:1017100038530310B0CE0210F0B5DE4657464E46A1
:101720004546E0B58DB0060090461F00169B9A46D0
:10173000179B994618AB1B780793272302AA944658
:10174000634400221A7021E001003000FFF7E8FD39
:1017500000783CE00698002B5CD0079B002B59D00A
:101760004946D04704000D0003000B4359D000291F
:1017700040DB08A8FFF724FE089A099B0094019516
:1017800008A8FFF7D5FC089B9846099F7268EFF3FD
:10179000108B72B6136859424B41D9B20691002B97
:1017A000F8D1BFF35F8F273302AA944663440493B2
:1017B0000023039302934B46019353460093424602
:1017C0003B003000FFF720FE0400051EBCD173680B
:1017D000BFF35F8F002119608BF31088002D17D0A5
:1017E000272302AA944663441B78002BB2D100023F
:1017F0002043B0E700236242AB410092019342468E
:101800003B0008A8FFF794FC089B9846099FBDE79A
:10181000012040420DB0F0BCBB46B246A946A046EE
:10182000F0BD0698F6E7F0B5C64600B584B00500F1
:10183000884616001F000AAB1C78FFF757FF02947A
:10184000019700962A004346FFF766FF04B080BC6C
:10185000B846F0BDF0B5C64600B505000C1E42D036
:101860004268EFF3108772B61368002BFCD0BFF309
:101870005F8FE6B22B68984631001800FFF78AFCAC
:1018800000282AD02B69A34213D0240AE4B23100E5
:101890002800FFF745FD0378A34211D000206B68B4
:1018A000BFF35F8F00221A6087F3108880BCB846B0
:1018B000F0BD0E4B0E4A2C210E48FF3100F054FEB5
:1018C0003100404600F05AFB0028E8D10A4B084A94
:1018D00099210848490000F047FE2B69A342DED158
:1018E00000232B61DBE70020E0E7C046CCD00210EC
:1018F00020530310B0CE0210F0D0021010B5040037
:10190000FFF7F4FE2100FFF7A5FF10BD407D7047F3
:1019100030B587B004000D00EFF30583002B20D114
:1019200006225242D31712196B418B4202D803D1BF
:10193000824201D90022002304A8FFF7E7FB02A896
:10194000FFF73EFD02980399049A059B121A8B41FA
:10195000002B0BDC08D02000290000F0DBF807B0DA
:1019600030BD144800F0E0FE002AF4D0124A04987A
:10197000059900230093FFF756FF002813DAEAE7E2
:101980000E4B1A68EFF3108172B61368002BFCD06F
:10199000BFF35F8F094B1B68BFF35F8F00221A6094
:1019A00081F3108820BF04980599FFF767FB002892
:1019B000E6D0D0E7F4D0021091130010C8D6002072
:1019C00000B583B002000B006846FFF70AFD0098DF
:1019D0000199FFF79DFF03B000BD10B5FA229200F8
:1019E0000023002102F0BAFBFFF7EAFF10BD000060
:1019F00030B583B005000C00EFF30583002B0FD149
:101A00000B4A00230093FFF70EFF00280BDD20BFD9
:101A1000FFF774FF28002100FFF730FB03B030BD53
:101A2000FFF72CFBFAE728002100FFF727FBF5E77B
:101A30009113001010B5002B02DB0260436010BD53
:101A4000024B034A03483F2100F08EFDECCE02100A
:101A50002454031008CF021070B5EFF3058010383E
:101A6000EFF3108C72B6194B1B68002BFBD0BFF341
:101A70005F8F01221300834015494B6315490B60AA
:101A8000154909780C00C440224213D0104A546A08
:101A9000124A8500AA58944205D3114AAA580E4CFE
:101AA0009943217007E00A4A031D9B0099589950F9
:101AB000002200E00022BFF35F8F044B0021196079
:101AC0008CF31088002A00D0904770BD280100D008
:101AD000004005403C700540A3D700203CD70020C3
:101AE0005019002010B50100024A034B1800FEF700
:101AF000B7FE10BD44D1021095D70020044B5B6A9D
:101B0000034A906A1900536A9942F9D17047C04656
:101B100000400540084B5B6A01E0074B5B6A8B4263
:101B2000FBD301E0044B5B6A8B4203D1024B9B6AFF
:101B30008342F7D37047C04600400540F0B583B0FC
:101B400004000D00FFF7DAFF06000F0022002B0053
:101B500092197B41994202D804D1904202D90122C4
:101B60005242D3176846FFF765FF00980199FFF7C7
:101B7000D1FF03B0F0BD000070B504000E00EFF31C
:101B8000108572B61B4B1B68002BFBD0BFF35F8F19
:101B9000002E1CD02000FEF783FF174B83420BD092
:101BA00019002000FEF784FF01212000FEF768FFE6
:101BB0000123A340114A1360114BA400E650BFF368
:101BC0005F8F0C4B00221A6085F3108870BD0C4BA0
:101BD000A2000021D1500122A2400A490B78934370
:101BE0000B7005492000FFF795F800212000FEF753
:101BF00047FFE4E7280100D0591A0010386005407B
:101C000050190020A3D70020F0B5DE4600B584B0FF
:101C10000400150001921E000293FFF76FFF039569
:101C20008E4202D84ED185424CD9EFF3108B72B65A
:101C3000274B1B68002BFBD0BFF35F8F254A17781B
:101C40000125A540EBB23B431370234B5D63221D7E
:101C500092000199D150214AA100029888501B6A34
:101C60002B4212D11C4B1B6C2B4208D00020BFF31F
:101C70005F8F174B00221A608BF3108823E0184BFC
:101C8000184A1948C52100F06FFCFFF737FF8E4254
:101C900014D802D1039B834210D80E4B1B78BB4251
:101CA0000ED00D4B1D625D631F2222400123934025
:101CB0000E4A1360074B1F700120D8E70020D6E7BB
:101CC0000120D4E7012004B080BCBB46F0BDC04673
:101CD000280100D0A3D70020004005403CD70020B9
:101CE00068D10210085403108CD1021080E200E089
:101CF000EFF3108C72B60B4B1B68002BFBD0BFF3BD
:101D00005F8F01238340084A136208490A789A4387
:101D10000A70BFF35F8F034B00221A608CF31088A8
:101D20007047C046280100D000400540A3D70020DE
:101D300010B5002908D0037B8B4205D300684B0007
:101D40005B18033BC01810BD024B034A03486821CF
:101D500000F00AFC54CF02107C54031070CF021024
:101D6000F8B506000C001500FFF7E2FF0700002C95
:101D70000DD0002D11D0AC4215D029003000FFF756
:101D8000D7FF84703B78002B13D13D70F8BD0A4B10
:101D90000A4A0B486F2100F0E7FB0A4B074A084844
:101DA000702100F0E1FB084B044A0548712100F066
:101DB000DBFB43703D70E9E7C0CF021068540310AD
:101DC00070CF0210CCCF0210D8CF021070B5060031
:101DD0000D001400002914D0002A14D04368806834
:101DE0009847002806D0220029003000FFF7B8FFEE
:101DF000280007E02A0021003000FFF7B1FF200093
:101E000000E0100070BD0800FCE770B5050000237D
:101E1000437301338373037BC373012406E0210002
:101E20002800FFF785FF0134E4B24470297BA1420A
:101E3000F5D82800FFF77CFF0023437070BD10B574
:101E4000017342608360FFF7E0FF10BDF0B5C64646
:101E500000B505000C1E03D1200080BCB846F0BDC3
:101E6000FFF766FF4678002EF6D031002800FFF716
:101E70005FFF477800239846437021002800FFF752
:101E800057FF43464370320021002800FFF79EFFB2
:101E9000040039002800FFF7D9FF020021002800C4
:101EA000FFF794FF0400D7E7F0B5C64600B504007D
:101EB0000D001700002927D0FFF73AFF4378002BC9
:101EC00028D18378002B2BD101782000FFF7BEFFAB
:101ED00006008046002F0AD0E17B002926D1A37B93
:101EE000002B03D1E37B002B25D1A573E57343467B
:101EF000002B26D129002000FFF71AFF0023437092
:101F0000300080BCB846F0BD114B124A124838214F
:101F100000F02AFB114B0F4A0F483A2100F024FB36
:101F20000F4B0C4A0C483B2100F01EFB2000FFF732
:101F3000FFFE4570D3E70B4B064A0748422100F0ED
:101F400013FB31002000FFF7F3FE00238370D1E77D
:101F5000D4D1021054540310DCD102101CD2021050
:101F600044D2021018D0021070B504000A00457B5C
:101F70002900FFF799FF6073280070BD70B5060057
:101F80000C1E40D0437B8B4207D0FFF7D1FE0500EB
:101F90008178002906D1002036E00121FFF7E4FF17
:101FA000012031E03000FFF7C3FE0178A1420DD0DF
:101FB0003000FFF7BDFE4178A1420AD00029F7D1D9
:101FC000124B134A13486B3100F0CEFA6B78037052
:101FD00001E06B7843700023AB706B70012221002D
:101FE0003000FFF761FF0200717B814205D03000B5
:101FF000FFF7ECFE7073012006E0074B044A05482A
:10200000712100F0B1FA002070BDC0468C4B031066
:102010003C540310DCD1021068D2021070B5046B7E
:10202000E30701D4200070BD02003032C0239B01C1
:1020300013430A4A1A60456A836AAD01ED18AD027E
:10204000062000F0BDF9064901F0F0FC010028006F
:1020500001F0ECFC0021FFF771FDE3E70103000054
:102060004E0E000070B504000E001500FFF7D6FFFD
:1020700022002C32E36A5E40354080235B0113432B
:102080001D60206370BD000070B505000C000620C7
:1020900000F096F9C000210001F0C8FCC60908D084
:1020A0000E4B9E4216D87F230340013334005E0856
:1020B00000E001246C62AE62002200212800FFF7DC
:1020C000D1FF062000F07CF98000A101891901F000
:1020D000ADFC70BD0026024CECE7C046FEFF0000E0
:1020E000FFFF000010B505394901013AD200114344
:1020F000002B09D002220A43012B07D000211143F3
:102100006E22FFF7AFFF10BD0022F4E70421F6E7CF
:10211000002909D00A22064B9C466044434258419C
:10212000044B4000C252704780225200F3E7C04681
:102130000080FCBF70D7002070B505000C000620A1
:1021400000F03EF9061E27D0164B9D4226D0802275
:10215000D203154B1A60154B1A60154B9B68110082
:102160009943FAD100212800FFF7D2FF210028006F
:10217000FFF78AFF06000023012208212800FFF74D
:10218000B1FF2A002C3280239B01134310221A60D6
:10219000084B2B630323AB64300070BD8022120414
:1021A000D7E7C0460080034000E0004000F0004058
:1021B00000C0004001030000F8B5DE4657464E4619
:1021C0004546E0B506000F0015000A9A934250D329
:1021D0001A0E92461B0298460A9A00234046514620
:1021E00001F062FC81467400A419A4002F4B9C46A8
:1021F00064446368834200D26060331FDBB29B4655
:10220000012B3CD9C0239B012343802212011A6079
:10221000274BB200D158002907D0586901F006FCBD
:10222000013043001B18033BFDD26D0123685D4064
:10223000E0222A4080235B0123431A605A46012A88
:1022400028D980239B012343802212011A604B4628
:1022500063604A4600234046514601F025FC144B7A
:10226000B60098510120F0BCBB46B246A946A04634
:10227000F8BD104B104A1148332100F075F9012FB9
:10228000C0D1C0239B01234303221A60A368DB074C
:10229000FCD5CAE72168794003220A401A60A36886
:1022A0000125BD401D42FAD0CBE7C046008000406A
:1022B000841B002088D20210885403109CD2021084
:1022C00030B583B00C2000F011F9FEF7A9FA002810
:1022D0000DD0002304E02E4A99002E488850013387
:1022E000092BF8D92A4B2C4A5A6203B030BD2B4B2C
:1022F00000229A6700F002F9294B01221A60274B4D
:102300005B6C012BFBD1274B03221A60234B9B6B89
:10231000012BFBD1013300930433234A01212348CD
:1023200000F054F805230093214A0121214800F0D0
:102330004DF8214B0093002202210420FFF73CFFBF
:102340001E4D00952B00002201210520FFF734FFD0
:10235000104C00942300002200210720FFF72CFFDF
:1023600000942300002200210820FFF725FF0A4BDC
:1023700000932300002200210920FFF71DFF009594
:102380002B00002200210620FFF716FFADE7C04614
:10239000841B0020006CDC021BB7000000800040A2
:1023A0003CB0004030B00040002F6859008002402F
:1023B000008C864700C00240001BB70040597307DD
:1023C000014B8000C0587047841B0020F0B5C64602
:1023D00000B504000E0017001D00374801F026FB71
:1023E0008046364BFA18364B9A4239D801003800ED
:1023F00001F01CFB0200103A98235B009A4235D88A
:102400006B1E062B38D8069B013B062B34D83F09A0
:10241000474537D32D04069B1B031D432368002B20
:1024200036DB284B9C4244D080235B01264A136054
:10243000264A1360264A926819009143FAD1266011
:10244000A060221DC0239B01134321221A60226831
:10245000002AFCDAE56008221A6080BCB846F0BDAC
:102460001C4B1D4A1D48112100F07EF81C4B1A4AD6
:102470001A48192100F078F81A4B174A17481C21FE
:1024800000F072F8184B144A1448232100F06CF83D
:1024900022683F231340B342C3D1A3681B051B0D21
:1024A0008342BED1E368EE22D2021340AB42B8D1E0
:1024B000D3E780239B01B9E7001BB70080E84BD32B
:1024C00080F8A93200C0024000E0004000F0004067
:1024D00000C00040E4D202109854031044D302100C
:1024E00088D30210A4D30210F0D3021080239B00E3
:1024F0000343014AD362704700800540064BAA227D
:1025000012011A602F22DA60044B054A1A60024B4E
:102510005B68002BFBDA704700400240006002401D
:1025200000B0FA0000BEFDE703000A4A1268002A64
:1025300008D0084A1068C318074A9A4206D3054AC9
:1025400013607047034A05491160F2E701204042D9
:10255000F7E7C0467C2A002000000420A8D700200E
:1025600010B5FFF7DFFF000030B583B00D00190094
:10257000002A0BD0074B084C019200932B0002005D
:10258000200002F00BF80120FFF7CCFF034B1A00EC
:10259000F1E7C0460CD402101CD4021060100310E6
:1025A00070B52B4B2B4A1A602B4B2C4A1A602C4BC4
:1025B0009A682A4B9343FAD12A4C01E008CC9847F9
:1025C000294B9C42FAD3FFF77BFE234B274A1A6024
:1025D000234B9B68DB43DB01FAD1254B40229A67F2
:1025E0005A671A67DA66234C09E0234B234A2448CA
:1025F0008721FFF7B9FF2000FEF724FD0834214BA7
:102600009C4209D22368002BF5D0012BEDD120008C
:10261000FEF725FD0834F2E71B4DA9681B4CC022CC
:10262000200001F02BFEAC60EFF30583002B00D0FF
:1026300000BEFEF777F9FEF7BDFCFFF737F8144C44
:1026400001E008CC9847134B9C42FAD370BDC046BA
:1026500000E00040BFCDFBFE00F00040FE7F3C00EC
:1026600000C00040180C0020280C0020FFFFFF01D4
:1026700000F00140100C00204CD40210BC54031098
:102680006CD40210180C002000ED00E000000020C7
:10269000280C0020300C002010B5002B02DB02605B
:1026A000436010BD024B034A03483F21FFF75CFF24
:1026B000ECCE0210A454031008CF021010B582B063
:1026C0000400FFF71BFA02000B006846FFF7E4FF67
:1026D000009A019B22606360200002B010BD0000E0
:1026E000D0B582B0041E18D06846FFF7E7FF009E01
:1026F000019F0B4B1A685B68B61A9F41094A002379
:102700003000390001F0B8F920606160054A00230B
:102710003000390001F0B0F9A260002002B0D0BD55
:10272000980D002040420F000FB400B583B0084858
:1027300001F004FF049B002B07D005A901911800AC
:1027400001F00CFF034801F0F9FE0120FFF7EAFE5B
:10275000B4D402107C13031010B50148FFF7E4FF56
:102760006C3603109A4200D288547047704710B5F7
:10277000002802D00B684968984710BD010000206E
:1027800007E083001B185B00501C08601078C0181D
:1027900030380A681378303BDBB2092BF1D9704727
:1027A000F0B5DE4657464E464546E0B583B0934603
:1027B0001F000C9B9A460D9C0E9B99460F9B9B07F6
:1027C00003D0B8460F00060022E00192A3468846D7
:1027D0004E46B9460700B44207D2551C4B46414607
:1027E0002020B84701342A00F5E73D004F465C46FB
:1027F000019B9B46B1464646B84637002E0007E08F
:10280000013C551C5346185D43463900B0472A0029
:10281000002CF5D135003E0047460F9B9B0707D49F
:10282000100003B0F0BCBB46B246A946A046F0BDBE
:10283000B0464E46B9462F005D46531BB342EFD219
:10284000541C4B4641462020B8472200F5E7F0B51E
:10285000CE46474680B585B0944698460C9D0D9C63
:102860000EAB1B789946109A119B129EB7071CD489
:10287000002B0CD0F7070AD54F46002F02D10C379A
:10288000374204D0013B02E030272F5501349442F7
:1028900001D21F2CF8D9F70707D59C4205D21F2C6F
:1028A00003D830272F550134F5E7F70612D5770501
:1028B00005D4002C03D0944221D09C421FD00F9A03
:1028C000102A32D00F9A022A37D01F2C0AD8302271
:1028D0002A5501341F2C05D84A46002A33D02D2210
:1028E0002A550134039602930194009543466246AB
:1028F000FFF756FF05B0C0BCB946B046F0BD621E3A
:10290000012C10D00F9F102F0BD014000F9A102AFB
:10291000D8D1B206D6D51F2CD4D858222A55013486
:10292000D3E7023CCBE71400C9E7B206EED41F2C74
:10293000ECD878222A550134C7E71F2CD2D8603250
:102940002A550134C1E7720703D52B222A550134D9
:10295000C8E73207C6D520222A550134C2E7F0B5B0
:10296000DE4657464E464546E0B593B081468A4618
:10297000089209931CAB10CB1B789B461E9D219B94
:102980009846002C03D1102342469A439046802358
:10299000DB0046461E4042461A4212D0002C22D08E
:1029A00000260EE03033D9B2771C0AAB99552900C6
:1029B000200001F03BF8AC4216D31F2F14D83E0084
:1029C00004002900200001F031F8CBB2092BE9D92D
:1029D0004246920605D54121C918C9B20A39C9B281
:1029E000E2E76121F8E7270043460693209B059321
:1029F0001F9B049303955B46029301970AAB0093D8
:102A0000099B089A51464846FFF721FF13B0F0BCD6
:102A1000BB46B246A946A046F0BDF0B5DE465746D5
:102A20004E464546E0B597B00A900B910C929A46F7
:102A3000209B9946219F22AA13789B46249B0993A9
:102A4000259C289B98464A463A4302D1103293432C
:102A500098468022D20045461540434613420AD08C
:102A60004A463A4341D000252E0053460D934D4629
:102A7000099B9A461BE02E0053460D934D46099B39
:102A80009A4614E03033DAB2731C99460EAB9A556D
:102A9000524623002800390001F006F8BC4226D82F
:102AA00019D04B461F2B1CD84E4605000F0052462E
:102AB00023002800390000F0F7FFD3B2092BE1D939
:102AC0004246920605D54122D218D2B20A3AD2B273
:102AD000DAE76122F8E7AA45E3D94E460D9B9A460C
:102AE00008E04E460D9B9A4604E0002602E04E4662
:102AF0000D9B9A4643460693279B0593269B04937A
:102B0000099B03935B46029301960EAB00935346D9
:102B10000C9A0B990A98FFF79AFE17B0F0BCBB46C7
:102B2000B246A946A046F0BDF0B5DE4657464E4631
:102B30004546E0B591B0804689460C929A461A9C6B
:102B40001B9D22002B002000290001F028FA0028FC
:102B500000D0ECE001225242D44B2000290001F0C9
:102B600019FA002800D0E2E001225242D04B2000A6
:102B7000290001F0F9F9002800D0D8E00022002354
:102B80002000290001F0F0F9002800D0E4E00694CC
:102B900007958023DB001E9A1A400D921E9A1A4256
:102BA00001D106231C930698079902000B00089296
:102BB000099303000A00024300D1D9E0080D400543
:102BC000400DBC4EB44660440A03120B1E00BA4BC3
:102BD00013431F0001F0F6F9B84AB94B01F085F92B
:102BE000B84AB94B01F062F9089009910022B74B3D
:102BF0003000390001F055F9B54AB64B01F075F9CE
:102C000002000B000898099901F050F901F0F2F95F
:102C1000834601F0D7F906000F00AF4AAF4B01F031
:102C200064F90022AE4B01F041F901F0E3F908909C
:102C3000AC4AAD4B3000390001F057F906000F00E7
:102C4000089801F0BFF9A94AA94B01F04EF902001A
:102C50000B003000390001F024F906000F000200DB
:102C60000B0001F042F90A900B91089BA14A94468F
:102C7000634400210022089109921B050993002357
:102C8000089332003B003000390001F00FF90E903C
:102C90000F9132003B0000208021C90501F001F9AD
:102CA00006000F000022944B0A980B9901F003F9DB
:102CB0000022924B01F0FAF802000B000A980B99DF
:102CC00001F0F9F800228E4B01F0F0F802000B0041
:102CD0000A980B9901F0EFF802000B003000390060
:102CE00001F0E4F802000B000E980F9901F0E3F8F0
:102CF0000022714B01F0DAF8089A099B01F0F5F80F
:102D000006000F0008960997069A079B01F042F902
:102D100000282FD001235B429C46E3440022774BDE
:102D20003000390001F0C7F80890099122E01E9B9D
:102D300004931D9B03931C9B02930094019553469F
:102D40000C9A4946404600F0FFF811B0F0BCBB4673
:102D5000B246A946A046F0BD002100220691079286
:102D6000069480231B069C46AC446346079310E7F9
:102D700000239B465B466333C62B20D804261E9B4C
:102D80001B0528D5089A099B190011430FD05D4AED
:102D90005D4B0698079901F0F5F800287AD00022DB
:102DA0005A4B0698079901F0DFF8002872D01C9B57
:102DB0005B4506DD5A469B1A013B1C9303E0052642
:102DC000DDE700231C938023DB001E9A1A431E922A
:102DD000002600239B461D9B9E4265D29F1B02231B
:102DE0001E9A1A400A921E9A134202D0002E00D058
:102DF00000275B46002B07D0089A099B0698079985
:102E000001F059F8069007910022002320002900C4
:102E100001F0AAF8002800D07CE03D4B1E9A134038
:102E2000049303971C9B0293069B079C00930194B9
:102E300053460C9A4946404600F086F8002E00D1D1
:102E400083E71E9B9B0671D54525441C5346020013
:102E500049462800C0475A46D317D2185A4005237E
:102E60000593013E0496002303930A3302935B46C5
:102E7000DB0F019300925346220049464046FFF77C
:102E80006EFD0A9B002B00D15FE7020047460C9EB7
:102E90001D9D53E01C9B002B9DD00D9B002B9AD0B9
:102EA0001C9B013B1C9396E7002798E7FFFFEF7FF1
:102EB000FFFFEFFF01FCFFFF0000F03FFB799F5099
:102EC0001344D33FB3C8608B288AC63F0000F83F45
:102ED00061436F63A787D23F71A379094F930A407B
:102EE0000000E03F1655B5BBB16B0240EF39FAFE6A
:102EF000422EE63FFF03000000002C40000024406B
:102F0000000018402D431CEBE2361A3F80842E410E
:102F1000FFF7FFFF069C079D220029008020000686
:102F2000844661440B000692079376E765258CE79B
:102F3000541C534649462020B8472200931BAB42FD
:102F4000F6D3100001E7C046F0B5DE4657464E46C0
:102F50004546E0B595B00690079193469946209F67
:102F60001E9A1F9B1000190001F019F8002831D19A
:102F700001225242BF4B1E981F9900F0F5FF002816
:102F800037D101225242BC4B1E981F9901F002F822
:102F900000283DD10022B94B1E981F9900F0FAFF7E
:102FA000002850D10022B64B1E981F9900F0DCFF7C
:102FB000002848D1002200231E981F9900F0D4FF5A
:102FC000002850D100239846229B5B0500D4B6E030
:102FD000002458E0229B0393219B02930323019337
:102FE000A84B00934B465A4607990698FFF7D8FB23
:102FF0000EE1229B0393219B029304230193A24B96
:1030000000934B465A4607990698FFF7C9FBFFE025
:103010000423229A1A4022990B4210D09B4B002A7B
:103020000FD00422229903912199029101920093D9
:103030004B465A4607990698FFF7B2FBE8E0944BD7
:10304000EDE70322EEE7229B0493219B0393029773
:103050001E9B1F9C009301944B465A460799069865
:10306000FFF762FDD4E01E9A1F9B0020002100F0B4
:1030700018FF1E901F9101239846A5E70CAB302244
:103080001A55013F01341F2C01D8092FF6D81E987C
:103090001F9900F0AFFF050000F094FF02000B0045
:1030A0001E981F9900F0FDFE7A4BFA009B181A68D3
:1030B0005B680A920B9300F018FF0890099100F0EA
:1030C000BDFF060000F07AFF02000B000898099986
:1030D00000F0E7FE0890099100226F4B00F05AFFC4
:1030E00000282ED00136300000F068FF02000B00EF
:1030F0000A980B9900F03EFF002801D00135002608
:10310000002F2CD1280000F05DFF02000B001E985C
:103110001F9900F0C6FE06000F0000225E4B00F073
:1031200023FF002846D100225B4B3000390000F01D
:1031300031FF00283ED1EB073CD501353AE00627A8
:1031400046E70022544B0898099900F00DFF00282B
:10315000D6D1002E01D0F307D2D50136D0E7AA464A
:103160001F2C11D8013F0A21300000F05FFC651CC4
:1031700030310CAB19550A21300000F057FC092EF4
:103180000ED906002C00EBE755461F2C0CD87B1EF1
:10319000002F09D00CAA302111551F000134F4E78B
:1031A0002B0055461C00F0E71F2C03D80CAB2E2239
:1031B0001A5501341F2C10D80A21280000F00EFCEB
:1031C000661C30310CAB19550A21280000F006FCB2
:1031D000051E01D03400EDE734000323229A13408A
:1031E000012B1CD01F2C06D84346002B32D00CAB31
:1031F0002D221A550134229B0393219B02930194A3
:103200000CAB00934B465A4607990698FFF7C8FA4D
:1032100015B0F0BCBB46B246A946A046F0BD219B06
:10322000002B13D04346002B02D10C3313420FD096
:10323000219B013B2193190003E00CAB30221A556E
:1032400001348C42CED21F2CF7D9CBE72199F8E775
:103250002199F6E7229B5B0704D50CAB2B221A556C
:103260000134C8E7229B1B07C5D50CAB20221A5599
:103270000134C0E7FFFFEFFFFFFFEF7F65CDCD41DA
:1032800065CDCDC1D0D40210D4D40210C4D4021064
:10329000CCD40210685603100000E03FF0B5DE46C3
:1032A00057464E464546E0B593B08246884693461B
:1032B0001193002900D10DE300255646119B187883
:1032C000002800D109E3252809D06C1C5B462A00A0
:1032D0004146B047119B013311932500EEE70133BE
:1032E0001193002720E001231F4301321192012492
:1032F00018E002231F4301321192012412E004233B
:103300001F430132119201240CE008231F430132B4
:103310001192012406E010231F430132119201246F
:1033200000E00024002C09D0119A1378203BD9B278
:103330001029F6D88B00C849CB589F46119B1A78A4
:103340001300303BDBB2092B10D92A2A13D00B947F
:10335000119B1A782E2A1ED0119A1378683BD9B285
:10336000122959D88B00BD49CB589F4611A8FFF7A9
:1033700005FA0B90ECE71C9B1A1D1C921B68002B96
:1033800004DB0B93119B01331193E1E702221743F6
:103390005B420B93F6E78022D20017435A1C11922E
:1033A0005A781300303BDBB2092B0BD92A2AD3D130
:1033B0001C9B1A1D1C921C68002C08DB119B0133FE
:1033C0001193C9E711A8FFF7D9F90400C4E7002455
:1033D000F4E780235B003B43511C119151786C2929
:1033E00001D01F0018E0C0239B001F43023211923E
:1033F00012E080233B43511C11915178682901D080
:103400001F0009E0C0231F430232119204E0802311
:103410005B001F4301321192119B1878672818D85E
:10342000252800D24CE20300253BDAB2422A00D91B
:1034300046E293008A4AD3589F4680239B001F434D
:1034400001321192E8E780235B001F4301321192A1
:10345000E2E7782800D933E2692800D230E202009E
:10346000693AD2B2012393407E4A134211D11A061F
:1034700000D500E25B0500D422E21C9B1A1D1C92C1
:103480001B689A46002C00D0B2E1012252425346FA
:103490008EE16F280ED006D858283DD0622804D17E
:1034A00002239C4608E0782839D010239F43063B2E
:1034B0009C4601E008239C46582833D0692803D055
:1034C000642801D00C2297437A0501D50122974345
:1034D00069282AD0642828D0BA0500D59FE0FA05CB
:1034E00000D5C1E07A0600D4D3E01C9A111D1C91CE
:1034F0001168FF220A4005970B9B049303946346CF
:1035000002930023019300925B462A00414630005B
:10351000FFF725FA050027E010239C46CCE710238F
:103520009C46C9E720221743C8E7BA0520D4FA050C
:1035300050D47A0666D51C9A111D1C911168FF2281
:103540000A40D0171118414005970B9B0493039430
:1035500063460293D20F019200915B462A004146D6
:103560003000FFF7FCF90500119B01331193A5E62C
:103570001C9A073207218A43110008311C911168F7
:1035800053689946DB170C930D930C9A0D9B100012
:1035900048400E904A4653400F930E980F990C9A4C
:1035A0000D9B801A99410E900F9108970B9B0793E2
:1035B000069463460493002305934B46DA0F029268
:1035C000009001915B462A0041463000FFF725FA42
:1035D0000500C9E71C9A111D1C911268D01711181B
:1035E000414005970B9B0493039463460293D20FCB
:1035F000019200915B462A0041463000FFF7AFF987
:103600000500B1E73A0605D51C9A111D1C9100234F
:10361000D25E96E71C9A111D1C91126891E71C9AC4
:10362000073207218A43110008311C9108970B9B30
:10363000079306946346049300230593029353680B
:103640001268009201935B462A0041463000FFF762
:10365000E4F9050088E7C046CC5403101055031068
:103660005C550310419000001C9A111D1C91059798
:103670000B9B049303946346029300230193136806
:1036800000935B462A0041463000FFF768F90500C9
:103690006AE73A0606D51C9A111D1C91126812049D
:1036A000120C28E71C9A111D1C91126823E746286A
:1036B00019D01C9B0733072293431A0008321C922F
:1036C00004970B9A039202941A685B680092019324
:1036D0005B462A0041463000FFF736FC0500119B8F
:1036E00001331193EAE520231F43E2E7672801D065
:1036F000472802D180231B011F43452801D04728BA
:1037000001D120231F431C9B0733072293431A0038
:1037100008321C9204970B9A039202941A685B6811
:10372000009201935B462A0041463000FFF7FCF906
:103730000500119B01331193C0E502231A003A40A2
:1037400091463B421DD001241C9B1A1D1C926F1CEC
:1037500018785B462A004146B0474B46002B14D1EF
:10376000119B013311933D00A8E5571C5B46414670
:103770002020B04723003A005C1C9D42F5D815007C
:10378000E2E701232A000B9DF6E73A00B1460B9EC3
:1037900006E0571C5B4641462020C8472C003A00F3
:1037A000651CA642F5D817004E46D9E701330A003A
:1037B0001978002902D0511E002AF7D152469B1ACF
:1037C0008022D200390011408946174202D0A3421C
:1037D00000D9230002221100394010913A4209D049
:1037E0002A00250057469A4633004E46994621E066
:1037F00022004CE62A004546A04606E0541C5B46E3
:1038000029002020B0473B0022005F1C0B99994201
:10381000F4D84446A8463B00250057469A46330054
:103820004E46994606E01D000137541C5B46414652
:10383000C84722003878002804D0002EF4D06B1E30
:10384000002DF0D1150053464E46109A002A03D1A0
:10385000119B0133119331E50B9F2A0006E0551CA3
:103860005B4641462020B04723002A005C1C9F4253
:10387000F5D81500ECE721233B431C9A111D1C9140
:1038800012680593082304930394083302930023DA
:10389000019300925B462A0041463000FFF75FF833
:1038A0000500119B0133119308E56C1C5B462A004F
:1038B00041462520B047119B013311932500FDE4BB
:1038C0006C1C5B462A004146B047119B01331193A3
:1038D0002500F3E40A4B9A46EEE4B2465D450DD36B
:1038E0005B465A1E5B4641460020D047280013B075
:1038F000F0BCBB46B246A946A046F0BD2A00F1E79F
:103900006D2700100CB430B585B00A0008AC08CCA7
:103910000394054D009401002800FFF7BFFC05B09B
:1039200030BC08BC02B018476527001010B582B043
:10393000044C009313000A0001002000FFF7AEFCC6
:1039400002B010BD6527001000B585B0029003914C
:1039500001210448009313004A4202A9FFF79EFC8C
:1039600005B000BD6F27001001480421014B184726
:10397000F0050020A5390010014B9B681847000096
:10398000F005002010B5010018231B8814221088B0
:10399000984710BD10B5010018231B881622108807
:1039A000984710BDF0B5C64600B507000E000025CB
:1039B0000123984600E00135B5420AD2AC003C191B
:1039C0002068FFF7DFFF20600028F4D1002398462D
:1039D000F1E7404680BCB846F0BD0000124A936F44
:1039E0009B0815D29066D166002905D0FFE7FFE756
:1039F000FFE7516F106F704704B580210906C217A9
:103A00005140002800D0C84328F00AFF002104BD1F
:103A1000F0B5146E556E576F166FFFF7E3FF14661F
:103A2000556657671667F0BD000000D0114A936FC6
:103A30009B0813D210665166002905D0FFE7FFE707
:103A4000FFE7516F106F704704B5002801D00020C8
:103A5000C04328F0E5FE002104BDC046F0B5146E59
:103A6000556E576F166FFFF7E5FF1466556657677B
:103A70001667F0BD000000D094464A4A926F920843
:103A8000624601D228E0C046F0B5464E346E756EEF
:103A9000776F366F00F020F89446424A14665566F8
:103AA000576716676246F0BD94463E4A926F920889
:103AB000624601D254E0C046F0B53A4E346E756E9F
:103AC000776F366F00F04CF89446364A14665566A8
:103AD000576716676246F0BD002B24DB11D0002922
:103AE0003EDA00B5C943404200D1013100F038F858
:103AF000C943404200D10131DB43524200D101337E
:103B000000BD002AEBD1002801D1002905D00020FA
:103B1000C90FC90701D1C043410800B528F070FEA4
:103B20000022002300BD00B500290ADBDB4352421E
:103B300000D1013300F014F8C943404200D10131F3
:103B400000BDC943404200D10131DB43524200D1A4
:103B5000013300F005F8DB43524200D1013300BDD0
:103B6000002923D1002B18D1002A0CD0BC460D4FC0
:103B700038667A6600210023FFE7FFE7FFE77A6FE8
:103B8000386F67467047002801D00748010000B52C
:103B900028F036FE0022002300BD02000B000020AA
:103BA00000217047000000D0FFFFFFFF002B00D076
:103BB000BFE0130C28D1002AE7D080B4114F39663A
:103BC0007A66FFE7FFE730B4040C7B6F396F1B04A4
:103BD00023433B667A66FFE7FFE7FFE7C04684B210
:103BE0007B6F3D6F1B0423433B667A66FFE7FFE76D
:103BF000C04600232C042D0C7A6F386F00196941E0
:103C0000B0BC7047000000D0F0B594460025140EFB
:103C100001D112020835140F01D112010435940F9D
:103C200001D192000235D40F01D152000135D40BDD
:103C30000134254F7C66254C3C660E0C93B2FFE7A1
:103C4000FFE7FFE73C6F6643360C7703BE467343DE
:103C5000DF0B5B04C01AB941130C7343DB18C91A9C
:103C6000CE086643360CB64493B273431F0F1B0154
:103C7000C01AB941130C73431F0B1B05C01AB9417D
:103C8000860D8F023E436643360C092D24DB520A13
:103C90007243801A7703460A6643360C16235B1B71
:103CA000DE40DF40BF1964466643821B7046043520
:103CB00006330100D940A840C01900D30131A24207
:103CC00006D20023F0BD0000000000D0FFFFFFFF80
:103CD000121B0130F3D3F1E709277F1BFE40644636
:103CE000A2B27243801A00D20139220C7243130C23
:103CF0001204821A99410B007046043513370100F3
:103D0000F940A840801900D30131002B02D1A24212
:103D10000AD2F0BD013000D30131121BFAD2013BAF
:103D2000F8D1A24200D2F0BD013000D30131121B04
:103D3000F7E7F0B51C0C00D080E00CB400251C0A9D
:103D400004D11B02160E3343120208351C0B04D19A
:103D50001B01160F3343120104359C0B04D19B0049
:103D6000960F334392000235DC0B02D192185B416F
:103D700001351C00971864410134464F7C66464C5F
:103D80003C660E0CFFE7FFE7FFE7C0463C6F66436B
:103D9000360C7703BE4697B27743C01B00D2013979
:103DA000C01B00D201399FB27743C91BC91B170C36
:103DB00077437E04FF0B801BB941CE086643360C67
:103DC0000C2D33DBB644120B1F053A431B0B97B285
:103DD0007743C01B00D201399FB27743C91B170C30
:103DE00077433E043F0C801BB941860D8F023E4352
:103DF000664329277F1BFE400C3D7746AF40BF1925
:103E000030BCA2B2ABB272437343801A9941220C08
:103E10007243130C1204801A994102000B000137FF
:103E2000001BA941F9D2781E0021F0BD0C277F1B91
:103E3000FE4077467F0BAF40FF19E0E700245D1C92
:103E400007D0144F7D663966FFE7FFE7FFE7FFE71E
:103E50003C6F95B29EB265436643401BB141150C61
:103E60001E0C6543664336042F0C3E432D04401B55
:103E7000B141994204D202000B0020000021F0BDA4
:103E800001D19042F7D3801A994101349942F2D37B
:103E9000F6E70000000000D0FFFFFFFF4840414070
:103EA000484018B4134B5B68019308BD18B4114B1C
:103EB0001B68019308BD94460F4A926F920805D281
:103EC000624618B40B4BDB68019308BD0A4AF0B593
:103ED000146E556E576F166F6246FFF7F2FF064A73
:103EE0001466556657671667F0BD18B4014B9B689A
:103EF000019308BDC0D40020000000D0FFB55040A1
:103F00004240504059404B40594000E0FFB5154FEA
:103F10004C00640D03D0BC4204D10C0314D8002023
:103F2000090D09055C00640D03D0BC4204D11C03DB
:103F30000AD800221B0D1B0501264B4009D44B401B
:103F400003D58B4200D18242FFBD9942FCD1904201
:103F5000FFBD0B43DB1803431343F5D0C943491896
:103F6000FFBD0000FF07000000B5FFF7CFFF804155
:103F700000BDC04600B5FFF7C9FF01D9002000BD54
:103F8000012000BD00B5FFF7B9FF01D9002000BD39
:103F9000012000BD00B5FFF7B1FF804100BD012049
:103FA00040054A00121804D85A00121801D80020FF
:103FB0007047012070470020704700000021002852
:103FC00005D17047C1174840401AFAD0C90713B548
:103FD000064B1B6898470CBC441CA2401005120BF2
:103FE0000349091B09051943114310BDC4D500201D
:103FF0001F04000010B54C00620D8023D218DB00B6
:10400000D21A5B057E2A10DD9E3A13DACC1709031B
:10401000490819435242D140640001341532202A24
:1040200005DAD0400843604310BD002010BD0846AB
:10403000604310BDC80FC018013810BD18B4024B42
:104040005B6A019308BD0000C0D4002010B5014890
:10405000FEF76AFBDCD4021070B513231C78012C28
:1040600012D0012C12DC214B214A93642148FFF726
:1040700089FC214B186070BD20491D4A9800815071
:1040800001331F2BF8D9ECE70023FAE71C48FFF7B0
:1040900081FC05001B48FFF77DFC023803789B007C
:1040A0007F2B09DD12488022290000F0E7F8022C5E
:1040B00008D0022CDADCD6E7134B144A144832211C
:1040C000FEF752FA134B1A88B5231B029A4209D104
:1040D000114B1A88114B9A4204D1114B1A88114B7B
:1040E0009A42E6D00020FEF71FFBC046294100108F
:1040F000C0D400204C330000C4D500204D40001037
:104100005344000053460000F4D40210B856031084
:1041100048D5021054380000D83800004946000045
:104120009C3800005946000007B56046002800D1C1
:1041300000BE01880A0A0230DF2AFAD1C9B2820819
:1041400004D3028840880004104300E00068024A5B
:104150005050039007BD0000C0D40020514343439A
:10416000C9188C46110C83B24B4310B4040C614344
:1041700092B280B2504362431C041B0C001910BC65
:1041800059411304120CC01851416144704700009A
:1041900010B50148FEF7C8FA6010031070B513237C
:1041A0001E781848FFF7F6FB0500012E11D0012EEE
:1041B00009DDAB1E1B789B007F2B1DDD1248802282
:1041C000290000F05BF81148FFF7DCFB104B18608A
:1041D00070BD0D485422290000F050F8002300E083
:1041E00001331F2BE3D8084A9C00A258002AF7D1BC
:1041F0000849054AA150F3E7074B084A08484221FD
:10420000FEF7B2F953460000C8D500204C33000039
:10421000C4D500209141001098D50210CC5603104F
:10422000CCD5021010B5002804D04018034B98429A
:1042300000D810BD0248FEF777FAC04600000420FF
:1042400018D6021070B50D0028F0BEF80400290041
:10425000FFF7E8FF200070BD10B527F0CDFC10BDC2
:1042600001480421014B184700060020A539001021
:10427000014B1B681847000000060020014B5B68DB
:10428000184700000006002010B5030008001100C8
:104290001B68984710BD0000F8B507000D00160018
:1042A000437D002B02D0002400200CE003681100A5
:1042B000280098472DE03B7D10E03B68154802211F
:1042C0009847601C0134B44214DA002CF3DD2B193A
:1042D000013B1B780D3B5A425341DBB22A5D0A2A4F
:1042E000F0D1002BEED1A042E7DA3B68211A281862
:1042F0009847E2E7B04203DA3B68311A281898473A
:10430000002E06DDAD19013D2B780D3B5A4253417D
:104310003B75F8BD1057031070B505000368002BFE
:1043200016D00C4B1C6805E0290004C92000FFF7DB
:10433000B3FF2469002C09D02368002BF9D0064B69
:104340001B68002BF0D0A342F3D1EDE700232B60D4
:1043500070BDC046602A0020782A002070B5050094
:104360000C000B68802B05D023685A1C2260E418CF
:10437000257170BD0800FFF7CFFFF5E710B5002BE2
:1043800002DB0260436010BD024B034A03483F2139
:10439000FEF7EAF8ECCE02101457031008CF021013
:1043A00010B582B00400FDF7A9FB02000B006846BF
:1043B000FFF7E4FF009A019B22606360200002B0D7
:1043C00010BD000070B582B0060014001D00FA2276
:1043D0009200002306980021FFF7C0FE02000B00A8
:1043E00012196B41002B09DB6846FFF7C7FF009AE3
:1043F000019B32607360300002B070BD01225242F6
:10440000004BF1E7FFFFFF7F30B585B004000D00E2
:1044100002A8FFF7C5FF029A039B00952000FFF753
:10442000D1FF200005B030BD00B583B0FA2189006E
:104430006846FFF7E9FF009A019B024828F000FA5E
:1044400003B000BD100C002010B5024828F0D0F9D0
:1044500010BDC046100C0020F0B5CE46474680B5D2
:1044600083B006000D0090461C00FFF7DDFF81467B
:104470006B1C05D0002C08D0194F1A4B1C6807E0A4
:10448000300028F001F80500F4E7174FF5E724693C
:10449000002C17D02368002BF9D0144B1B68002B7D
:1044A00001D0A342F3D12A0031002000B84743468F
:1044B000002BECD06B46D91D0A230B700122200083
:1044C000B847E4E74B46002B07D16B1E9D41E8B28D
:1044D00003B0C0BCB946B046F0BDFFF7B5FFF4E786
:1044E00089420010602A002099420010782A00209A
:1044F000094A01E010331A001368002B08D08342E8
:10450000F8D1002907D1036913600023036102E099
:10451000002900D010607047602A002010B5064BBB
:104520001C6801E098472469002C03D06368002BC5
:10453000F8D1F8E710BDC046602A002070B505002C
:1045400027F0A2FF04000023012201002800FFF74A
:1045500083FFFFF7E3FF200070BD000070B5A2B03D
:1045600004000E00FFF760FF0500002301930A48D6
:104570003300220001A9FFF7E7F9040001A8FFF7C3
:10458000CBFEFFF7CBFF002D02D1200022B070BD83
:10459000FFF75AFFF9E7C0465D4300100FB400B5BE
:1045A00083B004A901C90191FFF7D8FF03B008BC8B
:1045B00004B0184710B500F0FFF8012010BD00004E
:1045C00010B582B00C00144BC3185A425341134A21
:1045D0005B009B5E8B4204D06B46DA1D1470002199
:1045E00015E06B46DA1D0D23137000210029F3D16D
:1045F00083699B06FCD41378036001310132F5E72F
:1046000083699B06FCD413780360013101320029D1
:10461000F6D002B010BDC0460080FCBF70D70020AD
:1046200082B000226B46D91D06E08369DB06FCD40C
:1046300003680B7001320131002AF6D06B46D8793D
:1046400002B0704770B506000D00002405E0315D32
:10465000034B1868FFF7B4FF0134AC42F7DB70BDC1
:1046600074D70020F8B506000D00002705E07C1C7B
:10467000F719FFF7D5FF38702700AF4204DA0E4A6A
:1046800010688269D206F2D50C4A1268002A0CD052
:10469000094A12685021916310003430526B183966
:1046A00011408022520102431160002F01D03800D6
:1046B000F8BD033FFBE7C04674D70020781B0020FD
:1046C00010B5064B1B68002B06D0054A1268002166
:1046D0009163044A1068984710BDC046781B0020BB
:1046E00074D700207C1B002070B505000E001C4B09
:1046F0001A681C4BD31859424B4114331C00002834
:104700001ED0194B1B68002B04D0174B1D60174B94
:104710001E6070BD16492000FCF7CAF90121200077
:10472000FCF7AEF90E4B1B6850229A631900343126
:104730005B6B183A1A4080235B010B431A60E4E775
:10474000094B1B68002BE0D000239363002120005D
:10475000FCF796F906492000FCF7DCFAD5E7C046DD
:1047600074D700200080FCBF781B00207C1B002039
:10477000C146001070B50D001C000D4B1860002ADA
:104780000BDA002C0EDA0A4B18682900FDF7D4FC6E
:1047900008480121FFF7ACFE70BD02211000FBF7B5
:1047A0006FFFEEE702212000FBF76AFFEBE7C04650
:1047B00074D700201006002010B5064B1B78064B5E
:1047C0001B78E1210123002249020448FFF7D2FFB0
:1047D00010BDC046A0F406109CF406100040034033
:1047E00010B5002905D0FA2292000023FFF75CF9EA
:1047F00003E0FA218900FFF719F910BD10B5002B6D
:1048000002DB0260436010BD024B034A03483F21B4
:10481000FDF7AAFEECCE02104057031008CF02109D
:1048200070B582B0060014001D00FA229200002329
:1048300006980021FFF792FC02000B0012196B4151
:10484000002B09DB6846FFF7D9FF009A019B326015
:104850007360300002B070BD01225242004BF1E79C
:10486000FFFFFF7F10B5064B8B4202D106F0ACF87C
:1048700010BD044B044A05481821FDF775FEC046DB
:1048800028060020A0D6021058570310C0D60210E8
:1048900010B582B00400FDF731F902000B00684644
:1048A000FFF7ACFF009A019B22606360200002B01A
:1048B00010BD30B585B004000D0002A8FFF7E8FF79
:1048C000029A039B00952000FFF7AAFF200005B085
:1048D00030BD000030B583B00400134B994213D1B2
:1048E00001230B7206F09AF80100431C12D10F4B02
:1048F0000F4A106851689860D96023685B690B495A
:104900002000984703B030BD0A4B0B4A0B481D21CD
:10491000FDF72AFE054D6846FFF7CBFF009A019B85
:10492000AA60EB60E9E7C0464006002028060020A8
:104930000054031008D7021070570310C0D602109D
:1049400010B50400094B1B78002B08D0084901233F
:104950000B722368DB6920009847012010BD00F02E
:104960000DFC024B01221A70F0E7C04698D70020D8
:104970004006002010B5040003689B69034998476E
:1049800023681B6A02492000984710BD28060020B2
:104990004006002000207047704700B583B068468D
:1049A000FFF776FF00980199FFF71AFF03B000BDEB
:1049B00002000B0004490868496850405940084308
:1049C00043425841C0B270470054031010B5002B49
:1049D00002DB0260436010BD024B034A03483F21E3
:1049E000FDF7C2FDECCE02108457031008CF021071
:1049F00010B582B00400FDF781F802000B00684694
:104A0000FFF7E4FF009A019B22606360200002B080
:104A100010BD083000E018000368002B03D08B4263
:104A2000F9D1002002E001600B60012070470830DE
:104A300000E018000368002B05D08B42F9D10B6809
:104A40000360012000E000207047043000E01800FF
:104A50000368002B03D08B42F9D1002002E00160F3
:104A60000B6001207047043000E018000368002B41
:104A700005D08B42F9D10B680360012000E00020D3
:104A800070470000F0B585B00500806800282AD086
:104A900002A8FFF7ADFF029E039F08350023019394
:104AA00006E0134B134A14484221FDF75DFD250033
:104AB0002C68002C11D0A268E36830003900801AFD
:104AC00099410029F3DBA668E76830003900FFF759
:104AD0006FFF0028E5D10195E9E7019A002A04D08B
:104AE00010680368136005B0F0BD0198FBE7C0468D
:104AF00038D702109C5703105CD70210F0B50D4B4D
:104B00001E685F68836802E09E68DF686346002B6A
:104B10000DD01A6894469C68DD6831003A00091B84
:104B2000AA41002AF0DCF1D10029EDD1EEE70661BF
:104B30004761F0BD0054031070B506000D0002E09F
:104B40004B68280098472800FFF79CFF011EF7D10B
:104B50006C6800E02468002C09D0237A002BF9D07F
:104B6000002323726368210028009847F2E7280099
:104B7000FFF7C4FF2A696B6932607360300070BD53
:104B800070B50F4C0F4D24184D41A900A00F0843DC
:104B9000A90F604069400C4A0C4BFFF7DFFA4A014D
:104BA000C30E1343CA0E58405140094A094BFFF740
:104BB000D5FA4A00C30F1343CA0F5840514070BD85
:104BC000157C4A7FB979379EB9E5E41C6D4758BF1B
:104BD000EB113113BB49D094F0B5C64600B584B093
:104BE00002000B0013498C461BE0614601C900908E
:104BF0008C4600210191910E9F010F439601009870
:104C000001998019794102900391110C1D040D4303
:104C100014040298039900196941801A994102000D
:104C20000B0005498C45E0D91000190004B080BC88
:104C3000B846F0BD001C0420FF1F0420F0B5CE468E
:104C4000474680B583B0804603684468009301946A
:104C500003008068D96801E0FCF750FF009C019DCB
:104C600023002B4302D103000B43F5D0009C019D90
:104C7000A60FAB003343A2002E002500AD185E4105
:104C80006B0E9946F3019C464B46624613431F0048
:104C9000730EEA0113431E005B0F9C46FB00644643
:104CA0002343F20092197B41009C019D60406940C2
:104CB000260A2F063E432D0A009C24062543454024
:104CC00034004C40070C0E043E4307047D40744002
:104CD0004646356074604C01C50E2C434001C90E38
:104CE0000843B460F0601000190003B0C0BCB946BE
:104CF000B046F0BD10B5002B02DB0260436010BD72
:104D0000024B034A03483F21FDF72EFCECCE021074
:104D1000CC57031008CF021010B582B00400FCF786
:104D2000EDFE02000B006846FFF7E4FF009A019BCE
:104D300022606360200002B010BD000010B582B098
:104D400004000498059912184B41002B09DB6846B2
:104D5000FFF7D0FF009A019B22606360200002B041
:104D600010BD01225242014BF1E7C046FFFFFF7F19
:104D700070B584B0040016001D0002A8FFF7CCFF38
:104D8000029A039B009601952000FFF7D7FF2000B1
:104D900004B070BDF0B5DE4657464E464546E0B518
:104DA00085B082464B4B9B69DB040FD54A4BDA6BCF
:104DB000E0231340402B09D0EFF305839B460028E6
:104DC0000AD0002301930026002774E0434B444A95
:104DD00044488121FDF7C8FB434B414A41488621A5
:104DE000FDF7C2FB414B18685968FCF791FDEFF3E2
:104DF000108572B63E4B1B68002BFBD0BFF35F8F54
:104E00003A4B1A685B68904516D0BFF35F8F384BFA
:104E100000221A6085F310884B46002B48D1334B93
:104E20001A6890465C685B46002BDBD02F4B1868F5
:104E30005968FCF76FFEDAE7A342E6D1300039008B
:104E400080197941234BDA690123134003431E0083
:104E50000F00264C0A22002302A8FFF789FF029ABE
:104E6000039B226063605346013B019A93421CD12D
:104E7000204A514620390ED413688B40126851469F
:104E80008A4032433B4316001F001A4B1E605F608E
:104E900001239946B9E7202351465B1A1168D9408E
:104EA0005368504683400B43E8E701239946ACE73B
:104EB000019B01330193019B534502D20023994684
:104EC000ADE73000390005B0F0BCBB46B246A9469C
:104ED000A046F0BD0000064000800040B4D702109C
:104EE000E45703107CD8021028F00210A00D002017
:104EF000300100D0300C002010B586B0394C20684D
:104F00006168FFF769FE20606160FFF739FE029A71
:104F1000039B424002924B400393684600F006F91F
:104F200000980199FFF72CFE049A059B42400492D9
:104F30004B4005934020FFF72DFFFFF721FE029A1B
:104F4000039B424002924B400393FCF7D7FDFFF7CF
:104F500017FE049A059B424004924B400593EFF3E1
:104F6000108472B6204B1B68002BFBD0BFF35F8F01
:104F70001E4B1B78002B26D10022032A09D8531C74
:104F8000DB001B498C4663445B681F2B03D0013256
:104F9000F3E701225242531C1ED0164B1A70FF2316
:104FA00013400133DB00124A9446634405225A60E1
:104FB00002A8FFF743FE1048102202A9FFF75EF98E
:104FC0000A4B01221A70BFF35F8F074B00221A6051
:104FD00084F3108806B010BD084B094A0948E9213E
:104FE000FDF7C2FA380C0020300100D09FD7002016
:104FF0000000034093D70020400C0020BCD80210D2
:10500000045803107CD8021070B584B03A4B1B785A
:10501000002B00D167E0394910226846FFF72EF9CE
:10502000374B1C78E4B2FCF769FDFFF7A9FD009A45
:10503000019B424000924B4001930120FFF7AAFEE2
:10504000FFF79EFD029A039B424002924B4003935E
:105050002C4B1A78531CDB002B4958582B4B984289
:1050600044D00021FFF78CFD009A019B4240009242
:105070004B400193EFF3108672B6254B1B68002B53
:10508000FBD0BFF35F8F1E4B1B78DBB2A34210D067
:105090000099019A194B1C68586861400091424080
:1050A00001920299039A9C68D8686140029142403B
:1050B00003926846FFF7C2FD05000C000F4810225E
:1050C0006946FFF7DBF80E4A13780133DBB2137041
:1050D000BFF35F8F0E4B00221A6086F31088280002
:1050E000210004B070BDFFF707FF94E70132D20042
:1050F0000B000021D150B4E79FD70020400C0020C6
:1051000094D7002093D7002000000340FFFFFF004A
:10511000300100D010B5FFF777FF10BD10B5024881
:1051200000F00CF810BDC046B8D4002010B50249FC
:105130000822FFF7A3F810BDB8D4002030B589B01D
:10514000040004AD0D2200212800FFF791F80D2284
:1051500000216846FFF78CF84B232B700D2269461F
:10516000280027F03DFB002304E05A1D69468A5CB5
:10517000E2540133072BF8DD09B030BD10B501F062
:105180005DFC00F0C1FB00F097FD00F033FE05F080
:10519000D1FC01F011FD00F01AFA05F003FC10BD7E
:1051A000030A0002184380B27047030000061A0287
:1051B000FF2109040A4010431A0AFF2109020A408C
:1051C00010431B0E1843704700280AD0C07A0028ED
:1051D00009D1431C054A9B009B58002B04D0012099
:1051E00002E0002000E000207047C04618260020A2
:1051F00010B5FFF78FFF80B2002301E00133DBB26F
:10520000032B10D8084A1901C91809015218927ABB
:10521000022AF3D1044A1901C91809015218128946
:105220008242EBD1E5E710BD20260020F0B5D6463E
:105230004F464646C0B506008846002401E00134CA
:10524000E4B2032C25D8334A63001B199B009F58F6
:10525000002FF4D013006200121992009B181B7AE1
:10526000B342ECD130018019000110302A4BC01834
:10527000284A630099461B199B00924653445A687A
:105280004146B84723004B449B00002251465A50E8
:10529000D5E7002301E00133DBB2032B18D8B3427A
:1052A000F9D01D4A1901C91809015218927A022A27
:1052B000F1D119491A01D21812018A18D07B320192
:1052C000921912018918CA7B9042E4D10422CA7350
:1052D000114B3201921912019B18DB7B032B04D96D
:1052E000E0BCBA46B146A846F0BD0C4C9B0018592C
:1052F00005F016FF084B3201911909015918C97BB5
:10530000890000200851921912019B180422DA73B7
:10531000E6E7C046E825002020260020D82500200A
:10532000F0B5D6464F464646C0B584B08046564B8B
:105330000201424412019B18DB7A012B33D8534AF5
:105340009B009B58002B31D0070147443F01103789
:105350004D4BFF18380027F097F8A022123081B289
:105360009200362000F0DCFF051E00D189E001AC80
:105370000C2200212000FEF77BFF434B4246120126
:10538000424412019B181889FFF70AFF208001236D
:10539000A370FF33A3800C222100280001F0FCF948
:1053A000013F0C2638E03A48FDF7BEF90021FFF72F
:1053B0003DFF354B42461201424412019B18002228
:1053C0009A720024200004B0E0BCBA46B146A84658
:1053D000F0BD0134E4B201373B782E2B01D0002B15
:1053E000F7D14B46FB1A9BB29A463319294A93428E
:1053F00016DC22003100280001F068FA731C9BB211
:1054000052464946280001F013FAA419A4B2661CBA
:10541000B6B23B78002B09D00137B9460024DBE750
:10542000280000F03FFF06246442CBE70022310051
:10543000280001F04BFA0234A3B2802252006946E0
:105440000A804A80FC3A280001F0F2F90E4B4246ED
:1054500012014146511809015918C97B42441201F1
:105460009B18DA7A9200094BD2180B4B8900C85866
:105470003523290005F0CCFD0400280000F012FFC0
:10548000A0E7012464429DE7202600201826002082
:1054900028DA0210FEFF0000D825002070B50400B5
:1054A00003011B181B0141481818032C20D83F4A40
:1054B0002101091909015218927A022A34D01AD806
:1054C000002A14D0012A00D06CE0FFF791FE374A81
:1054D00021010B191B01D31818810220987200209A
:1054E000D87201251D7358732000FFF719FF70BD96
:1054F0002F48FDF719F9032A54D12C4A23011B190F
:105500001B019B58002B07D0013B110022011219EF
:1055100012015350002BEAD1244B2201121912011F
:105520009B1800229A72E2E7204922011219120107
:1055300089180A7B013AD2B20A73002AD7D11B49D3
:1055400022011219120189184A7B0132D2B24A7320
:10555000042A09D0154B2101091909015B181A7396
:105560002000FFF7DDFEC2E7FFF72EFE00280DD07A
:105570000E4A21010B191B01D318D87A0130D872B9
:10558000012018731A0000235373E9E7002120005B
:10559000FFF74CFE054B2201121912019B18002245
:1055A0009A72A4E70348FDF7BFF8C0462026002002
:1055B00040DA02105CDA021010B5002404E020008A
:1055C000FFF76CFF0134E4B2032CF8D910BD70472B
:1055D000012800D97047002904D0054B80000A68D3
:1055E000C250F7E7024B8000024A1268C250F1E74E
:1055F00018260020645A031010B5FFF7DDFF10BD18
:1056000070B5002501231E000640184205D0002970
:1056100003DD05782D020139013003221300034018
:10562000104209D0012903DD03880239023003E06A
:10563000002301E00839200007290CDD0268D21898
:10564000934200D901320400083443689B189A42FF
:10565000F0D90133EEE71A0C1B041B0CD31803E03E
:1056600002889B18023902300129F9DC002904DD87
:105670000278FF218D431543ADB2ED182B0C2D049C
:105680002D0C5B19180C1B041B0CC018002E05D028
:1056900003061B0C020AFF201040184380B270BDA5
:1056A000F8B5CE46474680B50500894690461C00B1
:1056B000002700E02D68002D15D068686E89310044
:1056C000FFF79EFF0019040C0004000C2418F607D5
:1056D000F0D57B425F41FFB223061B0C220AFF2458
:1056E00014401C43E6E7002F05D023061B0C220ABA
:1056F000FF2414401C434846FFF752FD241840463F
:10570000FFF74EFD2018030C0004000C1B18180CAA
:105710001B041B0CC018C04380B2C0BCB946B046C5
:10572000F8BD70B51B681C04240C1B0C1C19049BD1
:105730001B681D042D0C2C191B0C1B191C0C1B04A5
:105740001B0CE418230C2404240C1B19FFF7A8FFDE
:1057500070BD10B582B0049C0094FFF7E2FF02B068
:1057600010BD10B5FFF74CFFC04380B210BDF8B5B7
:1057700005000026002400E02D68002D15D0686883
:105780006F893900FFF73CFF0019040C0004000C7E
:105790002418FF07F0D573425E41F6B223061B0CB6
:1057A000220AFF2414401C43E6E7002E05D02306FE
:1057B0001B0C220AFF2414401C43E04380B2F8BDB6
:1057C000014B1B6818187047E4C40020024B1B688B
:1057D000C01A80B27047C046E4C40020F8B5040087
:1057E000FFF7F4FF050027883800FFF7E9FF060000
:1057F00064882000FFF7E4FFFA231B019F420FD8C3
:105800009C420FD8AC4202D00388AB420CD1094B6A
:105810001B68B3420AD07388AB4209D1012000E073
:105820000020F8BD0020FCE70020FAE70120F8E79F
:105830000020F6E7E8C4002070B504002B4B1B687D
:10584000834240D82A4B1D6885423FD90379002BFB
:105850003FD10088FA231B0198423DD8FFF7B0FFE3
:10586000844215D00379002B12D1854210D0214BF0
:105870001B68834233D000882080FA231B019842A2
:1058800006D0FFF79DFF05002000FFF79FFF68800F
:105890006088FFF795FF0500844213D00379002B41
:1058A00010D1144B1B68A3421CD020882880FA23F7
:1058B0001B01984206D0FFF783FF04002800FFF782
:1058C00085FF608070BD0C48FCF72EFF0B48FCF78D
:1058D0002BFF0B48FCF728FF0A48FCF725FF054B78
:1058E0001C60C8E7034B1860DFE7C046E4C4002033
:1058F000E8C40020B02A00207CDA021094DA0210FA
:10590000B0DA0210CCDA021070B50B4C03239C43C2
:105910000A4B1C60FA252D0125800023638023712A
:105920002800FFF74DFF064B186001230371058027
:105930004580044B1C6070BDEFC40020E4C400200F
:10594000E8C40020B02A002070B5041E23D08307CD
:1059500022D10500083D164B1B68AB421FD803003F
:105960000C33144A1268934219D80300083B1B7980
:10597000002B17D02800FFF731FF002815D0083C76
:10598000002323710C4B1B68AB4201D90A4B1D60ED
:105990002800FFF751FF70BD0848FCF7C5FE084816
:1059A000FCF7C2FE0748FCF7BFFE0748FCF7BCFE49
:1059B000E4C40020E8C40020B02A0020F8DA021075
:1059C0001CDB021038DB021060DB0210F0B5C646AB
:1059D00000B50500CC1CA4B203239C430B2C05D9B5
:1059E000FA231B019C4202D900253FE00C248C4283
:1059F00000D277E03C4B1B68AB423BD83B4B1B686B
:105A0000AB4237D92F00083F3800FFF7DFFE060012
:105A10003F883B1A9BB2083B9BB298469C422CD8CD
:105A200024D03800FFF7CCFE0379002B31D1FA23C4
:105A30001B019F4224D00788A419A4B20834A4B241
:105A40002B4B1B6883421ED02000FFF7B9FE0023BA
:105A50000371078046802B00083B1C800088FA23D6
:105A60001B01984202D0FFF7ABFE4480280080BCA7
:105A7000B846F0BD1F48FCF757FE1F48FCF754FE20
:105A80001E48FCF751FE2000FFF79AFE184B1860E5
:105A9000DAE7230014334345E8D8A419A4B2083444
:105AA000A4B2FA231B019F4219D02000FFF788FE01
:105AB0000F4B1B68834201D90D4B18600023037103
:105AC0002B00083B1A88028046801C800088FA233D
:105AD0001B019842CAD0FFF773FE4480C6E707480F
